:020000040800F2
:1000000080050020D5000008DD000008DF000008A2
:1000100000000000000000000000000000000000E0
:10002000000000000000000000000000E1000008E7
:100030000000000000000000E3000008CD140008EC
:10004000E7000008E7000008E7000008E7000008F4
:10005000E7000008E7000008E7000008E7000008E4
:10006000E7000008E7000008E7000008E7000008D4
:10007000E7000008E7000008E7000008E7000008C4
:10008000E7000008E7000008E7000008E7000008B4
:10009000E7000008E7000008E7000008E7000008A4
:1000A000E7000008E7000008E7000008E700000894
:1000B000E7000008E7000008E7000008E700000884
:1000C0000348854600F05AF800480047B926000862
:1000D000800500200448804704480047FEE7FEE70B
:1000E000FEE7FEE7FEE7FEE729150008C10000086D
:1000F00030B50B46014600202022012409E00D46C0
:10010000D5409D4205D31D469540491B2546954047
:1001100040191546521E002DF1DC30BD70B500248B
:100120002546002801DA01244042002901DA012590
:100130004942FFF7DDFFAC4200D04042002C00D026
:10014000494270BD03460B439B0703D009E008C931
:10015000121F08C0042AFAD203E00B780370401C77
:10016000491C521EF9D270470321001D401E03781E
:1001700012021A43491EF9D510467047064C012554
:10018000064E05E0E36807CC2B430C3C984710343F
:10019000B442F7D3FFF798FF98290008B829000860
:1001A00000B5104887B04269012149040A43426101
:1001B00042690A400592426949000A434261406926
:1001C0000840059006200090112001900120029027
:1001D0000020039009206946C00600F005F807B02A
:1001E00000BD000000100240F8B5002393E0224655
:1001F00001249C40A44622407ED04C68022C01D0B1
:10020000122C0CD1DC08A40027183C6A5D07ED0E07
:100210000F26AE40B4430E69AE4026433E620568E9
:100220005E000324B4400F79A543BF07BF0FB7405A
:100230002F4307604D68012D05D0022D03D0112DED
:1002400001D0122D0ED18568CF68A543B7402F434A
:10025000876047686546AF430D79ED06ED0F9D4019
:100260003D434560C568A5438C68B4402C43C460D9
:100270004C68E4004ED52B4CA56901263543A56199
:10028000A4699D0834400094274CAD002F19BC6828
:100290009D072E0F0F25B540AC430925ED06A8425A
:1002A00001D1002514E0214DA84201D101250FE024
:1002B0001F4DA84201D102250AE01E4DA84201D1DE
:1002C000032505E01C4DA84201D1042500E00525C9
:1002D000B5402543BD60194C25684E689543F6032B
:1002E00000D51543256065684E689543B60300D573
:1002F00015436560A56800E00CE04E689543F60282
:1003000000D51543A560E5684E689543B60200D553
:100310001543E5605B1C0A681446DA4000D066E7C6
:10032000F8BD000000100240000001400004004839
:1003300000080048000C004800100048000401407C
:10034000002A01D0816170478162704701480068CE
:10035000704700001400002070B502462032537D23
:10036000022B27D0537D122B24D0537D222B21D05A
:10037000537D322B1ED0537D422B1BD0137D012B7E
:1003800018D00123137502245475046825689D4311
:100390002560046825681E03B54325600468256848
:1003A0000D43256000680168194301605375002002
:1003B000107570BD022070BD70B5040006D02546D2
:1003C0002035687D0026002802D005E0012070BDA0
:1003D0002E75204600F030F902206875206801680B
:1003E0004908490001600F216068090688432168B7
:1003F0000861206882680121C9038A438260A0687D
:10040000002807D0E268012A01D02121890208438F
:1004100021688860E068022802D121688002486073
:10042000206841680C4A11434160616920690843B2
:10043000A169090208432168C860216AE06908438C
:10044000216808602068026801210A430260A663EF
:100450006975002070BD000000800002FFB50746EE
:1004600004462037787D81B01D4601286AD1039863
:10047000002858D0002D56D020688069C043000461
:1004800060D5387D01285DD001203875222078752F
:100490000020A06309208002FF2D09D901230090CC
:1004A0001B06FF222046029900F0BCFEFF2608E052
:1004B00001230090EAB25B062046029900F0B2FEEA
:1004C0002E460022042120460A9B00F0BDFE002893
:1004D00020D12068406A03996D1E08700398ADB260
:1004E000401C0390761E0BD0002DEAD11921204626
:1004F00000F0E2FE002818D0A06B042813D009E019
:10050000002DF3D00022802120460A9B00F09CFEA3
:10051000002802D0032005B0F0BDFF2D01D9002036
:10052000BCE70020C4E70120F5E721682020C8616E
:1005300020684168044A114041600120787500201C
:100540003875E8E70220E6E700E800FEFFB5074659
:1005500004462037787D81B01D46012868D1039874
:10056000002863D0002D61D020688069C04300045A
:100570005ED5387D01285BD0012038751220787552
:100580000020A06301204003FF2D09D90123009022
:100590001B06FF222046029900F044FEFF2608E0D9
:1005A00001230090EAB25B062046029900F03AFE71
:1005B0002E4620460A9900F0A7FE002803D0A06B23
:1005C000042833D02AE003982168007888620398D1
:1005D0006D1E401CADB20390761E15D0002DE8D1E3
:1005E00020460A9900F068FE0028E8D12168202002
:1005F000C861206841680F4A114041600120787548
:100600000020387505B0F0BD002DE9D00022802112
:1006100020460A9B00F018FE002801D00320F1E7D5
:10062000FF2D01D90020B1E70020B9E70120E9E75B
:100630000220E7E700E800FE00B500680E4987B039
:10064000884217D1032080020090122001900020E0
:100650000290032003900120049069460748FFF7A9
:10066000C3FD0748C269012189050A43C261C06907
:100670000840059007B000BD005800400004004845
:100680000010024002480168491C016070470000E8
:100690001400002010B506480168102211430160C3
:1006A000002000F007F800F017F8002010BD00004F
:1006B0000020024010B5044600F01CF97D21C9005D
:1006C000FFF716FD00F086FB00222146501E00F0C9
:1006D00015F8002010BD000008B507488169012207
:1006E0001143816180691040002200901146501E24
:1006F00000F004F808BD00000010024010B500F042
:10070000C3FE10BDF8B5054677480E460068F021D7
:10071000C007C00F754CB04269D2734802685208D6
:100720005200324302600068C007C00FB0427DD162
:100730002878800704D560688843A968084360600A
:100740002878C00730D06868012818D0022819D04E
:1007500003281AD021688907002967DA61688908A7
:10076000890001436160FFF7F1FD064668680128D2
:1007700014D002281FD05E4F032828D032E0216811
:100780008903E9E721688901E6E7616BC903E3E7CB
:10079000FFF7DCFD801BB84201D983E0544F60684D
:1007A0000007800F0128F3D18FE0FFF7CFFD801BFA
:1007B000B84201D976E04E4F60680007800F0228EA
:1007C000F3D182E0FFF7C2FD801BB8426AD86068AF
:1007D0000007800F0328F5D177E0FFF7B7FD801BF6
:1007E000B8425FD860680007800FF6D16DE02878C6
:1007F000800704D560688843A9680843606028784A
:10080000C00755D06868012819D002281AD00328DB
:100810001BD021688907002955DA61688908890099
:1008200001436160FFF792FD074600E04BE0686816
:10083000012813D002281DD0032827D034E02168D6
:100840008903E8E721688901E5E7616BC903E2E70D
:10085000FFF77CFDC11B2648814223D86068000752
:10086000800F0128F4D123E0FFF770FDC11B204861
:10087000814217D860680007800F0228F4D117E082
:10088000FFF764FDC11B1A4881420BD8606800075E
:10089000800F0328F4D10BE0FFF758FDC11B14486B
:1008A000814201D90320F8BD60680007800FF3D1B1
:1008B0000D48016849084900314301600068C007DC
:1008C000C00FB04201D00120F8BD2878400706D5FE
:1008D0006068072109028843E968084360600020D6
:1008E000FFF7E8FE0020F8BD0020024000100240A3
:1008F0008813000010B500F011F805494968054A51
:100900000906090F515CC8400349086010BD00008A
:1009100000100240542800080000002030B516A343
:100920000FCB89B06C460FC417A30FCB0FC41A4965
:100930004A680C20144604401848042C05D0184B73
:10094000082C04D00C2C00D1184609B030BD9402FC
:10095000240F6D462C5DC96A04AD0907090FD20347
:10096000695C920F022A02D0032A00D11846FFF7D1
:10097000BFFB6043E9E7000002030405060708091E
:100980000A0B0C0D0E0F10100102030405060708D8
:10099000090A0B0C0D0E0F100010024000127A0015
:1009A000006CDC02F8B504460078F94DC00761D050
:1009B00068680007800F012816D068680007800F5C
:1009C000022804D16868C003800F02280CD0286870
:1009D00001263604B04328602868B700B843286071
:1009E000FFF7B4FC00900DE02868800342D56068F2
:1009F000002873D03EE0FFF7A9FC0099411AE548B2
:100A000081426CD828688003F5D4606801280AD038
:100A1000002801D0052808D029682846B14329605C
:100A20002968B94307E0284603E029682846394386
:100A30002960016831430160606800280DD0FFF72C
:100A400085FC0646D34F04E0FFF780FC801BB842CC
:100A5000D7D828688003F7D50CE0FFF777FC064667
:100A6000CC4F04E0FFF772FC801BB842C9D828685D
:100A70008003F7D420780127800700283FDA6868D0
:100A80000007800F13D068680007800F022804D188
:100A90006868C003800F012809D0E0680028286832
:100AA0001ED038432860FFF751FC06460BE028684B
:100AB00080070BD5E068012810D107E0FFF746FC5E
:100AC000801B64289DD828688007F7D52868F821FE
:100AD00088432169C9000843286010E06AE1FCE00E
:100AE000400840002860FFF731FC064604E0FFF7AD
:100AF0002DFC801B642884D828688007F7D42078D0
:100B0000000721D5206A0028686A0ED03843686241
:100B1000FFF71CFC064604E0FFF718FC801B642866
:100B200096D8686A8007F7D50EE0400840006862F2
:100B3000FFF70CFC064604E0FFF708FC801B642866
:100B400086D8686A8007F7D42078042640070028F2
:100B500066DAE969B0060143E961E96901408E4856
:100B600000910168821511430160FFF7EFFB0090CF
:100B700005E0FFF7EBFB0099401A6428A2D88648ED
:100B80000068C005F5D5286A400840002862286A38
:100B9000B0432862FFF7DAFB009006E0FFF7D6FBD0
:100BA0000099411A7B4881428CD8286A8007F5D485
:100BB000A06801280BD0002801D0052809D0296A97
:100BC0002846490849002962296AB14307E02846B6
:100BD00003E0296A284631432962016A39430162E8
:100BE000A06800280ED0FFF7B1FB009006E0FFF7E9
:100BF000ADFB0099411A674881426ED8286A800788
:100C0000F5D50DE0FFF7A2FB009006E0FFF79EFB95
:100C10000099411A5F4881425FD8286A8007F5D45D
:100C20002078C00634D5606901280CD0401D686B5F
:100C300023D030436863686B400840006863FFF767
:100C400085FB064621E0686B30436863686B384378
:100C50006863FFF77BFB064604E0FFF777FB801B2A
:100C600064283AD8686B8007F7D5686BF821884309
:100C7000A169C900084368630AE0B0436863F4E708
:100C8000FFF764FB801B642827D8686B8007F7D4C4
:100C9000207880063CD568680007800F032815D0AF
:100CA00068680007800F022804D16868C003800FBD
:100CB00003280BD0E069002819D0686B01210904D2
:100CC00008436863FFF742FB06460CE0686BC0030D
:100CD0001ED5E06901286DD11AE064E0FFF736FB0C
:100CE000801B64285FD8686BC003F7D510E0696B80
:100CF0000120000481436963FFF728FB064604E0F6
:100D0000FFF724FB801B64284DD8686BC003F7D421
:100D1000606A00284CD069680907890F022949D008
:100D2000012636060228286805D0B0432860FFF760
:100D30000DFB044639E0B0432860FFF707FB074688
:100D400004E0FFF703FBC01B64282CD8286880014F
:100D5000F7D4E86A216B000900010843E862A16A40
:100D6000E06A084369687B22D203914308436860C4
:100D7000286830432860FFF7E9FA044604E0FFF7EB
:100D8000E5FA001B64280ED828688001F7D50FE02B
:100D9000001002408813000000700040FFF7D6FAF0
:100DA000001B642801D90320F8BD28688001F5D410
:100DB0000020F8BD0120F8BD042204490428086978
:100DC00002D09043086170471043FBE700E000E069
:100DD00070470000094910B5401E884201D9012022
:100DE00010BD074C60610321081F00F04DFB00207F
:100DF000A06107202061002010BD0000FFFFFF0060
:100E000000E000E010B5FFF7E3FF10BD70B502464B
:100E10002032137E012B15D0012313760224547641
:100E200030C94E682C430D68006835432C438D68EB
:100E30002C43CD6809692C430C434464537600204D
:100E4000107670BD022070BD70B502462032137E50
:100E5000012B1BD0012313760224547604686568A5
:100E60007026B5436560046865680E683543656043
:100E70000468A5688026B543A56000688468496851
:100E80000C43846053760020107670BD022070BD44
:100E900070B5040005D025462035687E002802D0B4
:100EA00006E0012070BD00202876204600F00AF8F8
:100EB00002206876211D206800F064FB012068761E
:100EC000002070BD10B5174C03680022164902209F
:100ED00086B0A34211D18C6983021C438C6189695D
:100EE0000190194005910521090204900091092003
:100EF000029203926946C00610E00C4CA3420FD147
:100F0000CB690343CB61C96901900140059101217F
:100F1000009104910292039269460548FFF764F933
:100F200006B010BD002C014000100240000400403B
:100F3000000400480222014620314A760268136804
:100F4000012003431360487600207047F8B505463A
:100F500004462035287E012817D001272F7602204D
:100F60006876226890687726FF23B0431B02984377
:100F700090600868502837D00EDC202857D006DC57
:100F800000284ED0102840D14EE00220F8BD302875
:100F900050D0402839D13CE060282DD0702817D09F
:100FA00001221203801A0ED090422ED1CB684A68DB
:100FB0008968206800F037FB20688168012292036D
:100FC0001143816021E020688168C908C900F8E701
:100FD000CB684A688968206800F025FB216888682A
:100FE000B0433043886010E0CA684968206800F068
:100FF00029FC5021206806E0CA684968206800F092
:1010000032FC6021206800F019FB6F760020287602
:10101000F8BDCA684968206800F014FC40212068C7
:10102000F1E700212068EEE710212068EBE720219E
:101030002068E8E730212068E5E7F8B50646044671
:101040002036307E0D4601280DD00120307602205A
:1010500070760427002A08D0042A16D0082A2AD03D
:101060000C2A4DD137E00220F8BD206800F0EEFADE
:101070002068816908221143816120688169B94330
:101080008161206881692A6912E0206800F022FBF2
:10109000206882690121C9020A438261206881694E
:1010A0000122920291438161206881692A691202BA
:1010B0001143816124E0206800F04CFB2068C26984
:1010C00008210A43C2612068C169B943C16120682F
:1010D000C1692A6912E0206800F07EFB2068C169BE
:1010E0000122D2021143C1612068C2690121890233
:1010F0008A43C2612068C1692A6912021143C16131
:101100000120707600203076F8BD70B5040005D05F
:1011100025462035687E002802D006E0012070BDFB
:1011200000202876204600F00AF802206876211D6B
:10113000206800F027FA01206876002070BD704713
:1011400010B504460068012200F062FA0C482168DC
:10115000814208D00B48814205D00B48814202D021
:101160000A48814204D1486C0122D20310434864EA
:1011700020680168012211430160002010BD0000B9
:10118000002C014000400140004401400048014063
:10119000F8B50E460446FFF7D9F80090206881693B
:1011A000C943C9063AD425462035697D122905D0A0
:1011B000697D522902D0697D622907D14168890180
:1011C00004D4416801229203114341600127206841
:1011D0008069C04380060FD5701CF8D0002E06D061
:1011E000FFF7B4F801460098081AB042EFD96F75BE
:1011F000002028750320F8BD21681020C8612168EF
:101200002020C86120684168054A114041600420DF
:10121000A0636F75002028750120F8BD0020F8BD7F
:1012200000E800FE70B50568049C68688905890DB2
:101230001204044E114319433040214301436960B5
:1012400070BD0000009800FCF8B51C4615460F461E
:101250000646FFF77BF829463546203500900029E1
:101260000BD021E0601C08D0002C17D0FFF76EF8DF
:1012700001460098081AA04210D8306881693846A3
:101280008843C003EED115E0601C0DD0002C05D0C2
:10129000FFF75CF80099401AA04205D90120687553
:1012A000002028750320F8BD3068816938468843DE
:1012B000C003E9D00020F8BD70B50D460446FFF725
:1012C00045F8064619E029462046FFF761FF002849
:1012D00001D0012070BD002D04D0FFF737F8801B2E
:1012E000A8420AD9A06B20210843A0630120203422
:1012F000607500202075032070BD20688069C043A0
:101300008006E0D4002070BD70B50D460446FFF79E
:101310001DF806461BE029462046FFF739FF002846
:1013200001D0012070BD681C11D0002D04D0FFF742
:101330000DF8801BA8420AD9A06B20210843A063A6
:1013400001202034607500202075032070BD2068C6
:101350008069C0438007DED4002070BD10B50B4803
:10136000094901600A4941600021816001614161D0
:1013700081610122C161C2600162FFF71DF8002195
:101380000248FEF7E9FF10BD00580040C8000020E9
:101390000E09002010B5214894B01F4901600024B7
:1013A00008218460416004611D494461C160FFF708
:1013B0006FFD012000030E900EA91848FFF7C6FD2F
:1013C0001648FFF7A2FE129412A914481394FFF7CF
:1013D0003BFD01200794400308940C9009940A9463
:1013E0000B9407A90D940D48FFF710FD60200090A5
:1013F0000C480694019002940394049405940022EE
:1014000069460648FFF719FE082269460348FFF7B8
:1014100014FE14B010BD0000002C01400401002097
:10142000204E00003C05000010B516488EB014494F
:10143000016000240821846041607D21C9000461AD
:10144000C160FFF725FD01200003079007A90D48A3
:10145000FFF77CFD0B48FFF758FE0B940BA90948DA
:101460000C94FFF7F1FC602000907820019002942A
:101470000822694604940348FFF7DFFD0EB010BD53
:1014800000040040400100208307FF22DB0E9A4049
:101490008907090E994000280BDA0007000F083869
:1014A000830808489B001818C36993430B43C36122
:1014B0007047830804489B001B1818689043084332
:1014C0001860704700ED00E000E400E010B5FFF7A1
:1014D000D9F8FFF797FC10BD30B591B0022000900D
:1014E0000024102009940125049003956846FFF715
:1014F00059FA0E940F9400210DA80D951094FFF742
:1015000001F9FFF7F7F97D21C900FEF7F1FDFFF7BB
:1015100061FC0420FFF750FC00221146501EFFF72B
:10152000EDF811B030BD00001248016801221143EE
:1015300001604168104A1140416001680F4A114042
:1015400001600168012292049143016041683F22D9
:10155000120491434160C16A09090901C162016B2A
:10156000074A11400163416B49084900416300216A
:1015700081607047001002400CB8FF08FFFFF6FEC4
:101580002CFEFCFFF0B502681B4B0124A4071B4D89
:10159000984203D0A04201D0A84203D17026B243A2
:1015A0004E683243164E174F98420DD0A0420BD0D2
:1015B000A84209D0144CA04206D0B04204D0B84290
:1015C00002D0124CA04204D103242402A243CC68CE
:1015D000224302608A68C2620A688262984206D028
:1015E000B04204D0B84202D0084A904201D1096901
:1015F000016301214161F0BD002C01400004004065
:1016000000400140004401400020004000480140EB
:1016100010B50123046A8B409C430462036A8A402C
:101620001343036210BD30B58468FF252D021B02F1
:101630001343AC430B432343836030BD8268702364
:101640009A430A4307210A4382607047F0B5026A51
:10165000520852000262056A436882697024A243FC
:1016600092080C6892001443022295438A68164E31
:101670002A43144DA84207D0B04205D0134FB842B8
:1016800002D0134FB84206D10827BA43CF68174398
:10169000042297433A46A84207D0B04205D00B4DEA
:1016A000A84202D00A4DA84206D103252D02AB4321
:1016B0004D691D438B692B434360846149684163D5
:1016C0000262F0BD002C0140004001400044014096
:1016D0000048014070B5026A10239A430262056A0D
:1016E0004268836973242402A3430C6824021C43C8
:1016F00020239D438B681B012B43124DA84208D128
:101700001D46CB688026B5431B012B434025AB43C8
:1017100008E00D4DA84205D00C4DA84202D00C4D5A
:10172000A84208D10325AD02AA434D69AD00154377
:101730008A6992002A434260846149688163036236
:1017400070BD0000002C01400040014000440140F9
:101750000048014070B5026AFF2301339A430262D8
:10176000056A4368C2697024A24392080C6892001B
:1017700014430122520295438A6812022A43124DF1
:10178000A84208D11546CA68C614B54312022A43B6
:101790000515AA4308E00D4DA84205D00C4DA842FE
:1017A00002D00C4DA84208D103252D03AB434D694F
:1017B0002D011D438B691B012B434360C4614968A4
:1017C000C163026270BD0000002C01400040014076
:1017D000004401400048014030B5026A01231B0368
:1017E0009A430262046A4268C36973252D02AB43BF
:1017F0000D682D021D4301235B039C438B681B0373
:1018000023430C4CA04208D00B4CA04205D00B4CFB
:10181000A04202D00A4CA04205D10124A403A24355
:101820004C69A40122434260C561496801640362B6
:1018300030BD0000002C0140004001400044014048
:101840000048014030B5036A046A64086400046219
:101850008469F025AC43120122430A24A3430B43BD
:101860008261036230BD30B5036A1024A343036272
:101870008469036A0F252D031203AC432243A0247D
:10188000A343090119438261016230BD10B50729E4
:1018900004D80A46152100F0E1FB10BD0120C04329
:1018A00010BD000010B5044A0029117202D000F0EA
:1018B000FFFB10BD002010BDBC00002010B50022B1
:1018C00000F053FA10BD000008B5064B0093134614
:1018D0000A4601460448FEF7C1FD002801D0002059
:1018E000C04308BD204E0000C800002008B5064BCC
:1018F000009313460A4601460448FEF727FE0028D7
:1019000001D00020C04308BD204E0000C8000020C8
:10191000F0B5254D87B006465520288164206881A2
:1019200001202F462873603738725020A8656A4618
:101930002421304600F0BBF9040032D1684600781B
:10194000787203AA2621304600F0C9F9040028D194
:101950000398000C01D0039801E01448039028601C
:1019600005AA1E21304600F0DAF9040019D16846B4
:10197000808A7D21C9004843C0096860304600F074
:1019800097FB05000DD404AA1621304600F08FF90C
:10199000040006D16846007C012801D1002D00D04A
:1019A0000124204607B0F0BD5C000020F803CE0003
:1019B0007047000070B5044600F00BFA002825DBE4
:1019C0000421204600F028F800281FD1C8220A214F
:1019D000204600F053F9002818D10D4A0D4B11464E
:1019E000403110618874C87408754875887508821C
:1019F00001464D00AD18AB828D00AD18491CA862A0
:101A00000A29F6DB07212046FFF740FF70BD0000E2
:101A10005C000020FFFF000010B5042905D80B462C
:101A2000F822142100F0F3F910BD0120C04310BDCD
:101A300038B50C466A464F2100F039F969460978F5
:101A4000C7221140217038BDF0B585B00C4607465D
:101A500000F06AF805005BD102AA6621384600F062
:101A60005EF9050054D168460089606003AA4D21E3
:101A7000384600F01CF9002803D16846007B0009B5
:101A8000A0602146384600F0ADFB050040D1234858
:101A9000007B002824D004AA6421384600F007F90E
:101AA000002812D168462189007CE26889B2019140
:101AB0000092410046182088324681B23846236998
:101AC00000F0EEFB002802DA681E054608E02084DC
:101AD0006684216880B2814202D01021A16020601A
:101AE0000E486030007A002812D00D4AE16838466E
:101AF000914210D200F04EFB084A0A494032928CC3
:101B00008988824200DA1046884200DD0846E0619A
:101B1000284605B0F0BD0020F9E700005C00002079
:101B2000100905006A28000838B50C466A4662218B
:101B300000F0BDF8002804D1694609784A008918E8
:101B4000216038BDF8B50D4606460121FFF79EFE1F
:101B5000040027D10121304600F09EF8040021D175
:101B600069463046FFF764FF040012D10098010671
:101B7000890F01D0241F0CE04007400F042803D038
:101B80003046FFF715FFEBE729463046FFF75CFFCD
:101B9000044601213046FFF779FE002802D0002CD0
:101BA00000D104462046F8BDF1B5254884B005892A
:101BB000468903AA1C21049800F079F8002821D155
:101BC0006846077B0498FF216A460A31029000F0BC
:101BD0006EF8002814D168460078FF214407640F8E
:101BE0006A460B31029800F062F8002808D1684676
:101BF00000780A2148435E30641C4443C83403D54E
:101C00000020C04305B0F0BD7D20C00047433C1B11
:101C100001AAB821049800F062F80028F2D10198D6
:101C20002146000245430190FF20F530714368438F
:101C3000FEF75EFA82B22221049800F02BFAE1E767
:101C40005C00002010B5002901D0012300E0002332
:101C5000FE222D2100F0DBF810BD10B50A46044627
:101C60001C2100F0FBF9002807D12046FFF79CFF5C
:101C7000002802D1204600F01BFA10BD70B50C46BA
:101C80000546192100F0EAF9002804D122461A215C
:101C9000284600F0E3F970BD10B5032904D80A46C0
:101CA000182100F0DBF910BD0120C04310BD7CB548
:101CB00015466C460A0A22706170064602222146C9
:101CC000FFF714FE002809D1012221463046FFF714
:101CD000FBFD002802D16946097829707CBDFEB55C
:101CE00016466D460A0A2A7069700746022229467E
:101CF000FFF7FCFD040010D1042229463846FFF707
:101D0000E3FD040009D12846FEF72EFA00BA694621
:101D1000000AC9780002084330602046FEBD7CB549
:101D200015466C460A0A2270617006460222214658
:101D3000FFF7DCFD00280AD1022221463046FFF7DA
:101D4000C3FD002803D16946098849BA29807CBDB2
:101D5000092310B5DB0652280A4604D00221184692
:101D6000FEF7EEFA10BD0421F9E710B5002901D005
:101D7000012903D1082A04D0002A02D00120C0433F
:101D800010BD002906D011215206130EE12200F0E9
:101D90003EF810BD1021F7E710B54A08014900F0E0
:101DA0005DF910BD120200000246002001218907E2
:101DB00000E089089142FCD808E04318934203D818
:101DC000D21A4008401800E0400889080029F4D1E0
:101DD000704770B50025064600F03AF804000FD1B0
:101DE00000213046FFF72EFF040009D103213046C1
:101DF00000F002F9044600221621304600F02EF9C8
:101E0000200002D4002800D02546284670BDFEB52B
:101E100016466C460A0A227061701D460746022269
:101E20002146FFF763FD002810D10122A11C38468E
:101E3000FFF74AFD002809D169468878032230401F
:101E40002843887021463846FFF750FDFEBD00004C
:101E500010B504460122664900F000F94121012233
:101E6000C900204600F0FAF800229621204600F032
:101E7000F5F854229721204600F0F0F80022E321E3
:101E8000204600F0EBF80422E421204600F0E6F8BA
:101E90000222E521204600F0E1F80122E621204659
:101EA00000F0DCF80322E721204600F0D7F80222F8
:101EB000F521204600F0D2F80522D921204600F075
:101EC000CDF84C4920460A68DA2100F0D2F8002209
:101ED0009F21204600F0C2F82822A321204600F0CE
:101EE000BDF80022B721204600F0B8F82822BB2117
:101EF000204600F0B3F80922B221204600F0AEF8E7
:101F00000922CA21204600F0A9F8FF2101229931B7
:101F1000204600F0A3F8FF211722B131204600F03F
:101F20009DF8FF210022AE31204600F097F80522EF
:101F3000FF21204600F092F8FF21052201312046C2
:101F400000F08CF8FF2105229A31204600F086F837
:101F5000FF211B22A731204600F080F8FF213E22FE
:101F6000AD31204600F07AF8FF211F22A83120462B
:101F700000F074F800223021204600F06FF81022A3
:101F80001121204600F06AF8FF2130220B31204653
:101F900000F064F846223F21204600F05FF8FF225F
:101FA0003121204600F05AF863224021204600F0FB
:101FB00055F801222E21204600F050F8FF222C2156
:101FC000204600F04BF809221B21204600F046F87D
:101FD00031223E21204600F041F8242214212046DF
:101FE00000F03CF83F212046FFF737FE002010BDEF
:101FF000070200005C00002070B50C46054603296E
:1020000016D3032C14D80C49600040184038C28FF6
:102010009621284600F03EF8084909200856214636
:10202000FEF77CF8C2B22421284600F017F870BDF4
:102030000120C04370BD000064280008BC000020DF
:1020400038B504466A4616212046FFF730FE694639
:102050000978012901D00028F4D038BD7CB56B4641
:102060000D0A1D7059709A7003226946FFF73EFCF5
:102070007CBD7CB56C460D0A25706170110EA17097
:10208000110CE170110A2171627106226946FFF795
:102090002DFC7CBD7CB56C460D0A25706170110A63
:1020A000A170E27004226946FFF720FC7CBD0000AD
:1020B000F0B587B0074600246A462A21FFF7F7FDEE
:1020C000002862D168460078002803D10124282026
:1020D00069460870684600787D21C9004843C609F2
:1020E00005AA2D213846FFF7E2FD00284DD104AAAC
:1020F0001C213846FFF7DBFD002846D103AAB82192
:102100003846FFF7ECFD00283FD101AA2C213846C4
:10211000FFF7CDFD002838D1684601797D20C00148
:10212000FDF7E6FF01461A4801664568AE4201D355
:10213000711B00E00021C1656846007D80070DD558
:1021400002AA26213846FFF7EAFD00281DD168467D
:1021500000897D21C9004843C60900E00026694680
:102160000398097C0002091FFDF7C2FF711B814221
:1021700000D308466946097948430109384600F00A
:1021800009F8034940318884204607B0F0BD0000BB
:102190005C00002010B510480029C46D1ADD0F48FE
:1021A000FDF7BCFFFF38E538002801DC002010BD3A
:1021B000094901228B6D096E5203C918904203DA56
:1021C0006043FDF795FF02E0FDF792FF6043FFF7E4
:1021D000EBFD10BD024810BD5C00002000688909BD
:1021E000FFFFFF7FF3B585B000240E4600940194F5
:1021F0000294214F01AA6C2103940598FFF76FFD0B
:10220000050035D10198B84200D9019402AA742181
:102210000598FFF764FD05002AD16A467C210598E0
:10222000FFF75DFD050023D103AA80210598FFF784
:1022300056FD05001CD100987061039CB461A0425A
:1022400000D90446002C00D10C4C7D210198C90016
:1022500048432146FDF74CFF0746029806214843B4
:102260007D21C90048432146FDF742FF3761F060F8
:10227000284607B0F0BD0000FFFFFF7F18F6000002
:1022800002E008C8121F08C1002AFAD1704770473F
:10229000002001E001C1121F002AFBD1704700009D
:1022A000FFB58FB00026199906960A960C96F3484A
:1022B0001C460B96079605900C2954D00D2955D035
:1022C0000F2953D005991198884201D20120069018
:1022D000EB48B4214768C06D109DC0190D901920BE
:1022E0004001381800900D984843FF213931FDF71F
:1022F000FFFEC0190190E1490D9855314843FF2177
:102300003931FDF7F5FEC0190890AF210D98C900CD
:102310004843FF213931FDF7EBFEC0190D901198AC
:102320003C2804D20098844201D2D44D0126119851
:10233000A52804D20198844201D2D04D0126D1496A
:102340001898884202D90120064607904B2C02D2E9
:10235000012006460790CA48816A002910D0A14290
:1023600007D2601A06E0C5481090B1E7C348109044
:10237000ACE7081B64225043FDF7BAFE322802D8AE
:102380000798002810D00027BD4938460F61002269
:102390004300D2435B189A8282005218401C80B2DC
:1023A00097620A28F3D30DE0B54A09204100891845
:1023B0004B8A8B8281008918401E4B6A00048B6215
:1023C000000CF3D10698002801D0109801E00020FD
:1023D000C043AB49888208468462FF2011995F3070
:1023E000814202D208998C4206D31199814202D3CC
:1023F0000D98844200D30126FF2103AAAD310F9826
:10240000FFF755FC002861D16846007BFF2108904A
:1024100003AA0D310F98FFF74AFC002856D16846F1
:10242000007BFF21079003AA11310F98FFF73FFCB3
:1024300000284BD16846007B0690914F08984037A2
:102440003E28079810D0387506987875002E20D051
:1024500008983E2813D0FF213E22AD310F98FFF798
:10246000FDFD002832D103E0B8740698F874EDE75A
:102470000122F2210F98FFF7F1FD002826D10799DC
:10248000B9740698F874397578757D49002008612B
:10249000F1E07B48007CC0070CD03E206946087301
:1024A00001260A7BFF21AD310F98FFF7D7FD0028E9
:1024B0000CD104E03C20694608730526F1E732465A
:1024C000F2210F98FFF7CAFD002803D00020C04377
:1024D00013B0F0BD6A480169491C0161F97C787D3F
:1024E000814201D9081A00E00020B875BA7C397D14
:1024F0008A4201D9511A00E0891AE123DB0099428E
:1025000001D9CA1A00E00022C91890427ED388423D
:102510007CD82046FF2418992D345B4E002911D019
:1025200064225043FDF7E4FD80B21E280AD205283C
:1025300001D8344606E05549401F48431921FDF7AC
:10254000D7FD84190D940024514E22460794A446C9
:10255000204606944A49430059188B8AB34209D051
:1025600047499A18830059188B6A641C0699A4B2CB
:1025700059180691401C80B20A2801D2062CE9D3D2
:10258000002C09D021461046FDF7B2FD07902146E8
:102590000698FDF7ADFD84460024224620460694A9
:1025A000374943005B189B8AB3420FD00799641CDC
:1025B000591A49438A18324B8100C9188B6A6146FF
:1025C000591A069B4943C918A4B20691401C80B20F
:1025D0000A2801D2062CE3D3032C1FD32146104630
:1025E000FDF786FD86B221460698FDF781FD82B291
:1025F0002848824219D2284928488A4208D20D9B8D
:10260000C01A5043FDF774FD0D9900E00DE040182D
:10261000F100814204D201200B9008E0059D06E004
:10262000864202D201200C9001E001200A90059818
:10263000854204D1388A00281DD0401E1AE00A982D
:10264000002808D0388A059D801C80B23882042872
:1026500011D904200EE00C98002807D0388A0028F1
:1026600009D0059D022804D9801E03E00B9800289C
:1026700001D00020388228462AE70000FD02000031
:102680005C0000204C1D0000C409000068F7FFFF3B
:10269000FFFF0000905F0100AC0D000088130000F8
:1026A00010B50446FDF752FE041900E000BFFDF727
:1026B0004DFEA042FAD310BD9AB0FDF7EBFFFEF736
:1026C0000BFF56484269012149040A4342614269AD
:1026D0000A400592426949000A4342614069002468
:1026E00008400590062000900120019009200294E6
:1026F00069460394C006FDF777FDFEF72FFEFEF74F
:1027000049FEFEF791FEFDF74BFD00215220FFF739
:102710001FFB00216220FFF71BFB0A20FFF7C0FF11
:1027200001216220FFF714FB0120FFF7B9FF5220BF
:10273000FFF786FC01215220FFF7C0F862215220EA
:10274000FFF72AFB6220FFF7E3F801215220FFF791
:10275000FFFA0120FFF7A4FF5220FFF771FC0121CF
:102760005220FFF7ABF85220FFF7D2F80121522098
:10277000FFF798F801216220FFF794F85220FFF745
:1027800019F96220FFF716F92548FEF7D3FB082157
:102790002348FEF7D5FC22483C38FEF7CBFB204807
:1027A00000213C38FEF7CCFC1D4808213C38FEF7E0
:1027B000C7FC1B4E13A808270AAD199010A9622068
:1027C000FFF7C0F907A95220FFF7BCF91099079845
:1027D000884200DB0846C82805DA810040187D21C0
:1027E000C900081A00E000203168C8631822069466
:1027F00068461999FDF7A6FC10A90EC90020C04330
:1028000000F010F81822294668460697FDF79AFC52
:1028100007A90EC9012000F005F8CFE7001002401B
:102820004001002010B5094A089B962906DA4C00A1
:102830000919FF24F534611A41438A1804480168D4
:102840009808800034300A5010BD00003C0500009C
:10285000040100200000000001020304010203043F
:1028600006070809FD007F005400B9007201440208
:102870004E6F742075736564203130004E6F742084
:1028800075736564203900004D617820436F6E7662
:10289000657267656E6365004E6F2054617267658F
:1028A000742049676E6F7265000000004561726CAC
:1028B0007920436F6E76657267656E636520457338
:1028C00074696D617465000046696C746572656455
:1028D00020627920706F73742070726F63657373F8
:1028E000696E6700564353454C20576174636864B2
:1028F0006F670000504C4C31204C6F636B00000040
:10290000504C4C32204C6F636B0000004D617820BE
:102910005369676E616C20546F204E6F6973652038
:10292000526174696F0000004E6F204572726F72C1
:1029300000000000564353454C205761746368649F
:102940006F67205465737400564353454C20436FA2
:102950006E74696E75697479205465737400000033
:102960005261772052616E67696E6720416C676FB4
:1029700020556E646572666C6F7700005261772037
:1029800052616E67696E6720416C676F204F766594
:1029900072666C6F77000000B82900080000002004
:1029A000C800000080220008802A0008C80000201B
:1029B000B80400009022000800127A000000000015
:1029C00000000000010203040607080900000000DF
:1029D000282900084829000834290008E4280008AC
:1029E000F428000800290008AC28000888280008FE
:1029F000982800087C280008702800080C29000886
:102A0000602900087C290008642900088029000842
:102A1000C828000800000000000000005500640005
:102A200000000000000000000000000000000000A6
:102A30000000000000000000000000000000000096
:102A40000000000000000000000000000000000086
:102A50000000000000000000000000000000000076
:102A60000000000000000000000000000000000066
:102A70000000000000000000000000000100000055
:04000005080000C12E
:00000001FF
